:0E0000000C942A000C9400000C9400000C9448
:10000E0000000C9400000C9400000C9400000C9462
:10001E0000000C9400000C9400000C9400000C9452
:10002E0000000C9400000C9400000C9400000C9442
:10003E0000000C9400000C9400000C9400000C9432
:10004E0000000C940000F894EE27ECBBF1E0FBBF2F
:10005E00EBBFE5BF8DE0A2E0BB27ED938A95E9F7F4
:10006E0080E098E0A0E6ED930197E9F7EFE5EDBFAC
:10007E00E8E0EEBFC0E6D2E00C944500EFEFEABB3D
:10008E00E0E0EBBBE7BBE8BBE4BBE5BBE1BBE2BB3F
:10009E00E3BFE2BFECBFEFBDEEBDEDBDECBDE7BD16
:1000AE00E6BDEBBDEABDE9BDE8BDE2BDE5BDE4BD23
:1000BE00E3BDE9BFE5BFE4BFEAB9E0E8E8B9E0E0D7
:1000CE00E0BFE6B9EDB9E6BFB09902C0D89801C05D
:1000DE00D89AB19902C0D99801C0D99AB29902C0E2
:1000EE00DA9801C0DA9AB39902C0DB9801C0DB9AA4
:1000FE00DF9AA8EEB3E00E94E500DF98A8EEB3E029
:10010E000E94E500B09902C0D89801C0D89AB19962
:10011E0002C0D99801C0D99AB29902C0DA9801C02A
:10012E00DA9AB39902C0DB9801C0DB9ADE9AAAEF85
:10013E00B0E00E94E500DE98AAEFB0E00E94E50074
:10014E00B09902C0D89801C0D89AB19902C0D99876
:10015E0001C0D99AB29902C0DA9801C0DA9AB3995D
:10016E0002C0DB9801C0DB9ADD9AA4EFB1E00E94D9
:10017E00E500DD98A4EFB1E00E94E500B09902C061
:10018E00D89801C0D89AB19902C0D99801C0D99A0D
:10019E00B29902C0DA9801C0DA9AB39902C0DB981C
:1001AE0001C0DB9ADC9AA0EDB7E00E94E500DC9876
:1001BE00A0EDB7E00E94E50087CFFFCF109639F093
:1001CE0088EE93E00197F1F7A8951197C9F7089576
:00000001FF
