:020000000C945E
:100002003D000C9400000C9400000C9400000C9431
:1000120000000C9400000C9400000C9400000C945E
:1000220000000C9400000C9400000C9400000C944E
:1000320000000C9400000C9400000C9400000C943E
:1000420000000C9400000C9400000C9400000C942E
:1000520000001027E80364000A00010000100001FC
:100062001000010054656D703D253264000080C0AF
:100072000200800270000000F894EE27ECBBF1E071
:10008200FBBFEBBFE5BF8DE0A2E0BB27ED938A95F6
:10009200E9F780E098E0A0E6ED930197E9F7E2E75F
:1000A200F0E085919591009761F0A591B591059049
:1000B2001590BF01F00105900D920197E1F7FB0148
:1000C200F0CFEFE5EDBFE8E0EEBFC0E6D2E00C9482
:1000D2007900AA93E881E064E7B983E08A95F1F7B1
:1000E200369A349BFECF349AE4B1F5B10C942D03C9
:1000F200E7E0EABBE0E0EBBBE7BBE8BBE4BBE5BBA8
:10010200EFEFE1BBE0E0E2BBE3BFE2BFECBFEFBD7C
:10011200EEBDEDBDECBDE7BDE6BDEBBDEABDE9BDA3
:10012200E8BDE2BDE5BDE4BDE3BDE9BFE5BFE4BFB7
:10013200EAB9E0E8E8B9E0E4E7B9E1E8E6B9E0E025
:10014200E0BFEDB9E6BFA0E10E940203C198C298E8
:10015200C098A0E0BEDF2F010E947D040E94F1033F
:10016200A3E2BBED89EF9EE30E941F040E94BA0343
:100172002F01E0E6F2E0FA93EA93E6E6F0E0FA9382
:10018200EA93F2010E947D040E94960484E00E9498
:100192006F022896A0E6B2E00E94F102E3E2F0E0EC
:1001A200E415F5051CF4C198C298C09AD201EAE0A0
:1001B200F0E00E9488040E2EE3E2F0E00E94820446
:1001C200E02141F0C098C298C198A4EFB1E00E942A
:1001D2008103C19AEAE0F0E04E165F061CF4C09873
:1001E200C198C29AA4EFB1E00E9481030E94D0029A
:1001F200ADCFFFCFBA93AA931A930A93AA81BB8178
:1002020012960E948E04309759F1AA81BB811496EE
:100212000E948E048F01309761F00230E0E01E07E9
:1002220098F0F80131978F01AA81BB811496ED9362
:10023200FC93AA81BB811296ED91FD913196FE93BA
:10024200EE933197AC81A083AA81BB810E948E0478
:10025200FF232AF0ED91FD913196FE93EE9306C0B5
:10026200AA81BB81EFEFFFEFED93FC931981088127
:1002720025960895BA93AA9326970E949B0410E0AC
:10028200AC85BD85E0E0F0E0ED93FC93EA89FB8963
:100292003196EA8BFB8B3197E4912E2FE03009F4F3
:1002A20015C1E12FE03039F4253211F411E002C01A
:1002B2000E9448030AC1E130A9F4253219F40E94D0
:1002C200480302C112E040E000E02D3211F401E0E7
:1002D200FCC02B3211F44BE2F8C0203211F440E2A0
:1002E200F4C002C0E23039F450E013E0203311F4DC
:1002F2000068EBC003C0E33009F0E7C0203310F020
:100302002A3308F007C0AAE05A9F502DE22FE0538B
:100312005E0FDBC0E22FE33649F40E944F03E88907
:10032200F989A481AA930E945503CEC0E33741F410
:100332000E944F030E945B030E942F031E2F0AC0DC
:10034200E03761F40E944F030E945B030E943B036B
:100352001E2F086002600F7730E034C0E43611F0DF
:10036200E93611F4046002C0E53731F4E4E5F0E067
:10037200EE83FF8315E00CC0E83511F4086003C07A
:10038200E83709F0A1C0EEE5F0E0EE83FF8314E068
:1003920002FF14C00E944F030E946503AB85AA238B
:1003A2003AF4EA85FB850E947104EA87FB874DE2F5
:1003B200403011F01F5F01C00B7F04C00E944F0349
:1003C2000E94650300FD11C0151778F407FF08C0ED
:1003D20002FF04C00B7F242F115001C020E301C093
:1003E20020E20E9448035150EFCF312F01FF17C086
:1003F2003030A1F003FF06C0EE81FF812591EE832C
:10040200FF8305C0AE81BF812D91AE83BF830E9461
:100412004803503009F051503150EACF4BC020E32D
:10042200EE81FF810E949204E887F987EE81FF81C5
:100432003296EE83FF83E885F985AA85BB85AE17E0
:10044200BF0750F02F5FA885B985EA85FB85EA1BB7
:10045200FB0BEA87FB87EFCF2A3328F003FF02C0AA
:10046200295F01C0295D04FD1AC0213320F4A8854B
:10047200B985119709F409C0531710F000FF01C0A4
:1004820013C020E207FF0BC020E3006102FF07C098
:100492000B7F4A930E945503503009F051500E943D
:1004A2004803503009F051503150A885B985129750
:1004B20008F0B5CF00FF08C0503031F05150E0E2F3
:1004C200EA930E945503F8CF10E0E0CEAC85BD85DB
:1004D2000E948E040E94A20464960895FF92F82E50
:1004E20026970E949D040E946D03309719F4EFEF46
:1004F200FFEF23C0DE0116960E946D048D010E945B
:100502006D03EE83FF83E0E0E887E987DE011A9658
:100512000E946D040E948E04FA93EA931A930A933E
:10052200EBEFF0E0FA93EA93DE011A96A3DE9F0165
:10053200AE81BF81E0E0EC93F9010E94A4042A9607
:10054200FF900895AA93E2B3EF70AE2FE881E07FA7
:10055200EA2BE2BB82E08A95F1F7929A82E08A95D1
:10056200F1F7929882E08A95F1F776C0AA93A88172
:10057200E9DFE881E295E883A881E4DF81E18A95F9
:10058200F1F76AC0AA93E881F0E0E058FD4FE081FC
:10059200A981AE0FEBDF7980688022960895A2E0F0
:1005A2000E947403ACE0E2DFA1E00E947403E0E089
:1005B2006E2E7E2E0895AA93A881AA3011F0791486
:1005C20048F0E0E0EA936394A62DDCDFA881AA302C
:1005D20009F442C07394909AA881C8DF90983CC0F5
:1005E200BA93AA931A93A981BA81ED91A983BA8386
:1005F2001E2FE03019F0A12FDEDFF5CF18812396F0
:100602000895AA93E1B3E06FE1BB8A9A889A899A26
:100612009298909891989880E881E058E0938202AD
:10062200E881E054E0938302A4E1B0E00E948103F8
:100632000E947A030E947A030E947A03A0E282DF78
:1006420081E28A95F1F7A8E291DFA4E08FDFA5E8C5
:100652008DDFA6E08BDFA3DF21960895BA93AA93DC
:10066200A991B991EE27FF276D91662311F031967A
:10067200FBCF0895BA93AA93AA27BB27E991F991D0
:100682000590002011F01196FBCFFD0108952A93E9
:10069200AD85BE85EF85F88909950895E889F989C0
:1006A2003497E88BF98B0895AD85BE85EF85F8897F
:1006B20009950895A889B98914960E948E04EE833B
:1006C200FF83AE81BF810895A889B98914960E94DB
:1006D2008E04EA87FB870895DE011C960E946D0452
:1006E2000E948E0408950E94B702A3E0B0E00C9429
:1006F2008103A0E30E94A30281E28A95F1F70895A3
:10070200109639F08AEF90E00197F1F7A8951197CA
:10071200C9F70895552342F4503811F4E0FF04C09C
:100722003196691F791F6BF050E8572711F45F93D8
:1007320073C05F3F31F0660F000C57956795752FB8
:1007420008955F9300200AF073C06CC050E8192E20
:100752001522880F991F9527550F879550E8072E68
:100762000522660F771F7527550F679508956894C0
:1007720001C0E8945F93F2DF703818F07F3F08F40D
:100782004BC056E1571BAAF4519558300EF459301C
:1007920030F0EFEFFFEF6FEF7FE777F91AC07727BF
:1007A2005523B9F0EE0FFF1F661F771F5A95D1F739
:1007B20010C07727583028F0EF2FF62F672F5850A8
:1007C200F9CF552331F076956795F795E7955A95C8
:1007D200D1F700200AF488D05F910895689401C08F
:1007E200E894309760407040B1F0002426F07723FF
:1007F20012F4009479D0172E7EE1112032F07A950E
:10080200EE0FFF1F661F111CF9CFEF2FF62F612D80
:100812005F938ADF5F910895EE27FF276627772788
:100822005F910895EFEFFFEF6FE77FEF5F9108951C
:10083200EFEFFFEF6FE77FE75F9108955F9386DF4A
:10084200703851F3903841F301240894791F23F44E
:100852001CF300203AF3ECCF0F921F932F933F9398
:100862004F93112722279927689FA0018F9F302D30
:10087200410D591F6B9F300D411D591F8E9F27D06F
:10088200BF9F25D06A9F23D0BE9F1DD0AF9F1BD094
:10089200AE9F110D291F391F491F591FE32FF42F36
:1008A200652F522F4F913F912F911F910F906623E9
:1008B2002AF0550FEE1FFF1F661F02C073954BF201
:1008C20029DF5F910895100D211D391F02C0200DEF
:1008D200311D491F591F08950024AF0DB01D089501
:1008E200F195E195F0400895F09560957095E19548
:1008F200FF4F6F4F7F4F08956F2F660F660B762F56
:100902000895EA17FB07E1E00CF4EE270895AE170D
:10091200BF07E1E00CF4EE270895ED91FC911197E9
:1009220008950590F491E02D08957A936A93FA93CD
:10093200EA9308955A934A933A932A931A930A93FD
:1009420008955D814C813B812A8119810881089536
:00000001FF
